{
  "contractName": "Splitter",
  "abi": [
    {
      "inputs": [
        {
          "name": "addresses",
          "type": "address[]"
        }
      ],
      "payable": false,
      "stateMutability": "nonpayable",
      "type": "constructor"
    },
    {
      "anonymous": false,
      "inputs": [
        {
          "indexed": false,
          "name": "addresses",
          "type": "address[]"
        }
      ],
      "name": "ContactInit",
      "type": "event"
    },
    {
      "anonymous": false,
      "inputs": [
        {
          "indexed": false,
          "name": "sender",
          "type": "address"
        }
      ],
      "name": "BalanceSplit",
      "type": "event"
    },
    {
      "constant": false,
      "inputs": [],
      "name": "splitBalance",
      "outputs": [
        {
          "name": "success",
          "type": "bool"
        }
      ],
      "payable": false,
      "stateMutability": "nonpayable",
      "type": "function"
    }
  ],
  "bytecode": "0x608060405234801561001057600080fd5b506040516108f13803806108f18339810180604052810190808051820192919050505060006003825114151561004557600080fd5b600090505b81518110156101a2576060604051908101604052806001151581526020016000815260200160001515815250600080848481518110151561008757fe5b9060200190602002015173ffffffffffffffffffffffffffffffffffffffff1673ffffffffffffffffffffffffffffffffffffffff16815260200190815260200160002060008201518160000160006101000a81548160ff0219169083151502179055506020820151816001015560408201518160020160006101000a81548160ff0219169083151502179055509050506001828281518110151561012857fe5b9060200190602002015190806001815401808255809150509060018203906000526020600020016000909192909190916101000a81548173ffffffffffffffffffffffffffffffffffffffff021916908373ffffffffffffffffffffffffffffffffffffffff16021790555050808060010191505061004a565b7fab678568fec0b7b0f10b649ed85cd25a88737a76141de02995ab78cc8f19994e826040518080602001828103825283818151815260200191508051906020019060200280838360005b838110156102075780820151818401526020810190506101ec565b505050509050019250505060405180910390a150506106c68061022b6000396000f300608060405260043610610041576000357c0100000000000000000000000000000000000000000000000000000000900463ffffffff168063449c847c14610046575b600080fd5b34801561005257600080fd5b5061005b610075565b604051808215151515815260200191505060405180910390f35b6000606060008060008060003373ffffffffffffffffffffffffffffffffffffffff1673ffffffffffffffffffffffffffffffffffffffff16815260200190815260200160002060000160009054906101000a900460ff161515610167576040517f08c379a00000000000000000000000000000000000000000000000000000000081526004018080602001828103825260228152602001807f4163636f756e74206973206e6f7420617574686f757269736564206d656d626581526020017f722e00000000000000000000000000000000000000000000000000000000000081525060400191505060405180910390fd5b6000803373ffffffffffffffffffffffffffffffffffffffff1673ffffffffffffffffffffffffffffffffffffffff1681526020019081526020016000206001015460038190555060008060003373ffffffffffffffffffffffffffffffffffffffff1673ffffffffffffffffffffffffffffffffffffffff168152602001908152602001600020600101819055506101fe610302565b9350835192508260035481151561021157fe5b049150600090505b828110156102945781600080868481518110151561023357fe5b9060200190602002015173ffffffffffffffffffffffffffffffffffffffff1673ffffffffffffffffffffffffffffffffffffffff168152602001908152602001600020600101600082825401925050819055508080600101915050610219565b7f8be7b47f8fd2892feea8d905cac370391f2e023aba1ad88aba46a8fbafcab25133604051808273ffffffffffffffffffffffffffffffffffffffff1673ffffffffffffffffffffffffffffffffffffffff16815260200191505060405180910390a1600194505050505090565b606060008060003373ffffffffffffffffffffffffffffffffffffffff1673ffffffffffffffffffffffffffffffffffffffff16815260200190815260200160002060000160009054906101000a900460ff1615156103ef576040517f08c379a00000000000000000000000000000000000000000000000000000000081526004018080602001828103825260228152602001807f4163636f756e74206973206e6f7420617574686f757269736564206d656d626581526020017f722e00000000000000000000000000000000000000000000000000000000000081525060400191505060405180910390fd5b600090505b60018054905081101561060d573373ffffffffffffffffffffffffffffffffffffffff1660018281548110151561042757fe5b9060005260206000200160009054906101000a900473ffffffffffffffffffffffffffffffffffffffff1673ffffffffffffffffffffffffffffffffffffffff1614156104cd5760016000803373ffffffffffffffffffffffffffffffffffffffff1673ffffffffffffffffffffffffffffffffffffffff16815260200190815260200160002060020160006101000a81548160ff021916908315150217905550610600565b60008060006001848154811015156104e157fe5b9060005260206000200160009054906101000a900473ffffffffffffffffffffffffffffffffffffffff1673ffffffffffffffffffffffffffffffffffffffff1673ffffffffffffffffffffffffffffffffffffffff16815260200190815260200160002060020160006101000a81548160ff021916908315150217905550600260018281548110151561057157fe5b9060005260206000200160009054906101000a900473ffffffffffffffffffffffffffffffffffffffff1690806001815401808255809150509060018203906000526020600020016000909192909190916101000a81548173ffffffffffffffffffffffffffffffffffffffff021916908373ffffffffffffffffffffffffffffffffffffffff160217905550505b80806001019150506103f4565b600280548060200260200160405190810160405280929190818152602001828054801561068f57602002820191906000526020600020905b8160009054906101000a900473ffffffffffffffffffffffffffffffffffffffff1673ffffffffffffffffffffffffffffffffffffffff1681526020019060010190808311610645575b5050505050915050905600a165627a7a72305820489149060a120a57fd9f3613e68e18ed72ebc1227cd2690fd52145f3943b1a840029",
  "source": "pragma solidity ^0.4.22;\r\n\r\n\r\ncontract Splitter {\r\n  struct Account {\r\n    bool isMember;\r\n    uint balance;\r\n    bool isSender;\r\n  } \r\n\r\n  mapping (address=>Account) private accounts;\r\n  address[] private addrs;\r\n  address[] nonSenderaddresses;\r\n\r\n  uint private currentBalance;\r\n\r\n  event ContactInit(address[] addresses);\r\n  event BalanceSplit(address sender);\r\n\r\n  modifier paymentSenderIsAuth() {\r\n    require(accounts[msg.sender].isMember, \"Account is not authourised member.\");\r\n    _;\r\n  }\r\n\r\n  //INIT CONTRACT\r\n  constructor (address[] addresses) public {\r\n    require(addresses.length == 3);\r\n    {\r\n      for (uint i = 0; i < addresses.length; i++) {\r\n        accounts[addresses[i]] = Account(true,0,false);\r\n        addrs.push(addresses[i]);\r\n    }\r\n    emit ContactInit(addresses);\r\n    }\r\n  }\r\n\r\n  function getOtherAccounts() internal paymentSenderIsAuth returns (address[] recievers) {\r\n    for (uint i = 0; i < addrs.length; i++) {\r\n      if (addrs[i] == msg.sender) {\r\n        accounts[msg.sender].isSender = true;\r\n      } else {\r\n        accounts[addrs[i]].isSender = false;\r\n        nonSenderaddresses.push(addrs[i]);\r\n      }\r\n    }\r\n    return nonSenderaddresses;\r\n  }\r\n\r\n  function splitBalance() public paymentSenderIsAuth returns (bool success) {\r\n    currentBalance = accounts[msg.sender].balance;\r\n    accounts[msg.sender].balance = 0;\r\n    address[] memory recievers;\r\n    recievers = getOtherAccounts();\r\n    uint numberOfRecivers = recievers.length;\r\n    uint cut = currentBalance/numberOfRecivers;\r\n\r\n    for (uint index = 0; index < numberOfRecivers; index++) {\r\n        accounts[recievers[index]].balance += cut;\r\n    }\r\n\r\n    emit BalanceSplit(msg.sender);\r\n    return true;\r\n  }\r\n}\r\n",
  "sourcePath": "/mnt/c/DAPPS/Splitter/contracts/Splitter.sol",
  "compiler": {
    "name": "solc",
    "version": "0.4.24+commit.e67f0147.Emscripten.clang"
  },
  "schemaVersion": "2.0.1",
  "updatedAt": "2018-11-11T19:17:44.842Z"
}