{
  "contractName": "Splitter",
  "abi": [
    {
      "constant": true,
      "inputs": [
        {
          "name": "",
          "type": "address"
        }
      ],
      "name": "balances",
      "outputs": [
        {
          "name": "",
          "type": "uint256"
        }
      ],
      "payable": false,
      "stateMutability": "view",
      "type": "function"
    },
    {
      "inputs": [],
      "payable": false,
      "stateMutability": "nonpayable",
      "type": "constructor"
    },
    {
      "anonymous": false,
      "inputs": [
        {
          "indexed": false,
          "name": "sender",
          "type": "address"
        }
      ],
      "name": "LogContractInit",
      "type": "event"
    },
    {
      "anonymous": false,
      "inputs": [
        {
          "indexed": false,
          "name": "sender",
          "type": "address"
        },
        {
          "indexed": false,
          "name": "balance",
          "type": "uint256"
        }
      ],
      "name": "LogBalanceSplit",
      "type": "event"
    },
    {
      "anonymous": false,
      "inputs": [
        {
          "indexed": false,
          "name": "reciever1",
          "type": "address"
        },
        {
          "indexed": false,
          "name": "reciever2",
          "type": "address"
        },
        {
          "indexed": false,
          "name": "amountRecieved",
          "type": "uint256"
        }
      ],
      "name": "LogFundsRecieved",
      "type": "event"
    },
    {
      "anonymous": false,
      "inputs": [
        {
          "indexed": false,
          "name": "sender",
          "type": "address"
        },
        {
          "indexed": false,
          "name": "balance",
          "type": "uint256"
        }
      ],
      "name": "LogWithdraw",
      "type": "event"
    },
    {
      "constant": false,
      "inputs": [
        {
          "name": "bob",
          "type": "address"
        },
        {
          "name": "carol",
          "type": "address"
        }
      ],
      "name": "sendSplit",
      "outputs": [
        {
          "name": "success",
          "type": "bool"
        }
      ],
      "payable": true,
      "stateMutability": "payable",
      "type": "function"
    },
    {
      "constant": false,
      "inputs": [],
      "name": "withdraw",
      "outputs": [
        {
          "name": "success",
          "type": "bool"
        }
      ],
      "payable": false,
      "stateMutability": "nonpayable",
      "type": "function"
    },
    {
      "constant": true,
      "inputs": [
        {
          "name": "user",
          "type": "address"
        }
      ],
      "name": "checkBalance",
      "outputs": [
        {
          "name": "balance",
          "type": "uint256"
        }
      ],
      "payable": false,
      "stateMutability": "view",
      "type": "function"
    }
  ],
  "bytecode": "0x608060405234801561001057600080fd5b50336000806101000a81548173ffffffffffffffffffffffffffffffffffffffff021916908373ffffffffffffffffffffffffffffffffffffffff1602179055507fc4032320f78dd44aef073e032c1ab45cbdd5976d4ecb948c9b9e6e9dbadb908f33604051808273ffffffffffffffffffffffffffffffffffffffff1673ffffffffffffffffffffffffffffffffffffffff16815260200191505060405180910390a1610647806100c36000396000f300608060405260043610610062576000357c0100000000000000000000000000000000000000000000000000000000900463ffffffff16806327e235e3146100675780633ccfd60b146100be5780635f515226146100ed5780637a0ba94a14610144575b600080fd5b34801561007357600080fd5b506100a8600480360381019080803573ffffffffffffffffffffffffffffffffffffffff1690602001909291905050506101b2565b6040518082815260200191505060405180910390f35b3480156100ca57600080fd5b506100d36101ca565b604051808215151515815260200191505060405180910390f35b3480156100f957600080fd5b5061012e600480360381019080803573ffffffffffffffffffffffffffffffffffffffff16906020019092919050505061035c565b6040518082815260200191505060405180910390f35b610198600480360381019080803573ffffffffffffffffffffffffffffffffffffffff169060200190929190803573ffffffffffffffffffffffffffffffffffffffff1690602001909291905050506103a5565b604051808215151515815260200191505060405180910390f35b60016020528060005260406000206000915090505481565b6000806000600160003373ffffffffffffffffffffffffffffffffffffffff1673ffffffffffffffffffffffffffffffffffffffff1681526020019081526020016000205411151561021b57600080fd5b600160003373ffffffffffffffffffffffffffffffffffffffff1673ffffffffffffffffffffffffffffffffffffffff1681526020019081526020016000205490506000600160003373ffffffffffffffffffffffffffffffffffffffff1673ffffffffffffffffffffffffffffffffffffffff168152602001908152602001600020819055503373ffffffffffffffffffffffffffffffffffffffff166108fc829081150290604051600060405180830381858888f193505050501580156102e8573d6000803e3d6000fd5b507f4ce7033d118120e254016dccf195288400b28fc8936425acd5f17ce2df3ab7083382604051808373ffffffffffffffffffffffffffffffffffffffff1673ffffffffffffffffffffffffffffffffffffffff1681526020018281526020019250505060405180910390a1600191505090565b6000600160008373ffffffffffffffffffffffffffffffffffffffff1673ffffffffffffffffffffffffffffffffffffffff168152602001908152602001600020549050919050565b6000806000341115156103b757600080fd5b60008473ffffffffffffffffffffffffffffffffffffffff16141515156103dd57600080fd5b60008373ffffffffffffffffffffffffffffffffffffffff161415151561040357600080fd5b6000809054906101000a900473ffffffffffffffffffffffffffffffffffffffff1673ffffffffffffffffffffffffffffffffffffffff163373ffffffffffffffffffffffffffffffffffffffff1614156106135760023481151561046457fe5b0490507f29bbc67b3f389f7707138a45cc171f1c64effa223d308195c33de6c9c89e09763334604051808373ffffffffffffffffffffffffffffffffffffffff1673ffffffffffffffffffffffffffffffffffffffff1681526020018281526020019250505060405180910390a180600160008673ffffffffffffffffffffffffffffffffffffffff1673ffffffffffffffffffffffffffffffffffffffff1681526020019081526020016000206000828254019250508190555080600160008573ffffffffffffffffffffffffffffffffffffffff1673ffffffffffffffffffffffffffffffffffffffff168152602001908152602001600020600082825401925050819055507e5ec644e9c4c5cd7e591b19f5243d39ece77c8e7c0a421606cff930d6dce03f848483604051808473ffffffffffffffffffffffffffffffffffffffff1673ffffffffffffffffffffffffffffffffffffffff1681526020018373ffffffffffffffffffffffffffffffffffffffff1673ffffffffffffffffffffffffffffffffffffffff168152602001828152602001935050505060405180910390a160019150610614565b5b50929150505600a165627a7a72305820eefa6925d53f27f388c00dd1f379708639948fcbcdd5edf04a7803570db23e120029",
  "source": "pragma solidity ^0.4.22;\r\n\r\ncontract Splitter {\r\n\r\n  address alice;\r\n\r\n  mapping (address => uint) public balances;\r\n\r\n  event LogContractInit(address sender);\r\n  event LogBalanceSplit(address sender, uint balance);\r\n  event LogFundsRecieved(address reciever1, address reciever2, uint amountRecieved);\r\n  event LogWithdraw(address sender, uint balance);\r\n  //INIT CONTRACT\r\n  constructor () public {\r\n      alice = msg.sender;\r\n      emit LogContractInit(msg.sender);\r\n    }\r\n\r\n  function sendSplit(address bob, address carol) public payable returns(bool success) {\r\n      require(msg.value > 0);\r\n      require(bob != 0);\r\n      require(carol != 0);\r\n      if (msg.sender == alice) {\r\n        uint value = msg.value/2;\r\n        emit LogBalanceSplit(msg.sender, msg.value);\r\n        balances[bob] += value;\r\n        balances[carol] += value;\r\n        emit LogFundsRecieved(bob,carol,value);\r\n        return true;\r\n      } \r\n    }\r\n\r\n  function withdraw()public returns(bool success) {\r\n    require(balances[msg.sender] > 0);\r\n    uint amount = balances[msg.sender];\r\n    balances[msg.sender] = 0;\r\n    msg.sender.transfer(amount);\r\n    emit LogWithdraw(msg.sender, amount);\r\n    return true;\r\n  }\r\n\r\n  function checkBalance(address user)public constant returns(uint balance) {\r\n    return balances[user];\r\n  }\r\n}\r\n",
  "sourcePath": "/mnt/c/DAPPS/Splitter/contracts/Splitter.sol",
  "compiler": {
    "name": "solc",
    "version": "0.4.24+commit.e67f0147.Emscripten.clang"
  },
  "schemaVersion": "2.0.1",
  "updatedAt": "2018-11-13T23:46:30.337Z"
}